{
  "contractName": "news",
  "abi": [
    {
      "constant": true,
      "inputs": [],
      "name": "newsCount",
      "outputs": [
        {
          "name": "",
          "type": "uint256"
        }
      ],
      "payable": false,
      "stateMutability": "view",
      "type": "function"
    },
    {
      "constant": true,
      "inputs": [
        {
          "name": "",
          "type": "uint256"
        }
      ],
      "name": "newsfeeds",
      "outputs": [
        {
          "name": "publisher",
          "type": "address"
        },
        {
          "name": "newsdesc",
          "type": "string"
        }
      ],
      "payable": false,
      "stateMutability": "view",
      "type": "function"
    },
    {
      "constant": false,
      "inputs": [
        {
          "name": "newsdesc",
          "type": "string"
        }
      ],
      "name": "addnews",
      "outputs": [],
      "payable": false,
      "stateMutability": "nonpayable",
      "type": "function"
    }
  ],
  "bytecode": "0x608060405234801561001057600080fd5b50610443806100206000396000f3fe608060405234801561001057600080fd5b50600436106100415760003560e01c80639981d6d314610046578063f3e24dcb14610064578063ff29d1381461011f575b600080fd5b61004e6101f9565b6040518082815260200191505060405180910390f35b61011d6004803603602081101561007a57600080fd5b810190808035906020019064010000000081111561009757600080fd5b8201836020820111156100a957600080fd5b803590602001918460018302840111640100000000831117156100cb57600080fd5b91908080601f016020809104026020016040519081016040528093929190818152602001838380828437600081840152601f19601f8201169050808301925050505050505091929192905050506101ff565b005b61014b6004803603602081101561013557600080fd5b8101908080359060200190929190505050610296565b604051808373ffffffffffffffffffffffffffffffffffffffff1673ffffffffffffffffffffffffffffffffffffffff16815260200180602001828103825283818151815260200191508051906020019080838360005b838110156101bd5780820151818401526020810190506101a2565b50505050905090810190601f1680156101ea5780820380516001836020036101000a031916815260200191505b50935050505060405180910390f35b60015481565b60016000815480929190600101919050555033600080600154815260200190815260200160002060000160006101000a81548173ffffffffffffffffffffffffffffffffffffffff021916908373ffffffffffffffffffffffffffffffffffffffff1602179055508060008060015481526020019081526020016000206001019080519060200190610292929190610372565b5050565b60006020528060005260406000206000915090508060000160009054906101000a900473ffffffffffffffffffffffffffffffffffffffff1690806001018054600181600116156101000203166002900480601f0160208091040260200160405190810160405280929190818152602001828054600181600116156101000203166002900480156103685780601f1061033d57610100808354040283529160200191610368565b820191906000526020600020905b81548152906001019060200180831161034b57829003601f168201915b5050505050905082565b828054600181600116156101000203166002900490600052602060002090601f016020900481019282601f106103b357805160ff19168380011785556103e1565b828001600101855582156103e1579182015b828111156103e05782518255916020019190600101906103c5565b5b5090506103ee91906103f2565b5090565b61041491905b808211156104105760008160009055506001016103f8565b5090565b9056fea165627a7a723058206680fa9c703bbbe5990ebacf084df6f6ca89dd93216dd816fb738443e07167150029",
  "source": "pragma solidity >=0.4.0 <=0.6.0;\r\n\r\ncontract news{\r\n\tstruct newsfeed{\r\n\t\taddress publisher;\r\n\t\tstring newsdesc;\r\n\t}\r\n\tmapping(uint => newsfeed) public newsfeeds;\r\n\tuint public newsCount;\r\n\r\n\tfunction addnews(string memory newsdesc) public {\r\n\t\tnewsCount++;\r\n\t\tnewsfeeds[newsCount].publisher = msg.sender;\r\n\t\tnewsfeeds[newsCount].newsdesc = newsdesc;\r\n\r\n\t}\r\n}",
  "sourcePath": "C:/Users/sania/Downloads/Blockchain Learning/postnews/contracts/news.sol",
  "compiler": {
    "name": "solc",
    "version": "0.5.8+commit.23d335f2.Emscripten.clang"
  },
  "schemaVersion": "3.0.11",
  "updatedAt": "2019-08-25T17:44:53.235Z",
  "devdoc": {
    "methods": {}
  },
  "userdoc": {
    "methods": {}
  }
}